:02000000D82DF9
:10000800FF00030E8301D0000A08CF008A017008A0
:10001800A2000C1D24280C1123181B281608CC003C
:10002800CB011508CB070318CC0A2314242816087B
:10003800CE00CD011508CD070318CE0A2310A3144E
:100048002208F0004F088A00500E8300FF0E7F0E32
:0200580009009D
:10005A00103083120313FD00FD0B31280000080045
:10006A00083083120313FC002330FD00FD0B3B28EC
:06007A00FC0B3B2808000E
:040080000000080074
:1000840083120313E61B4828861349288617661B28
:100094004D2806134E280617E61A522886125328AE
:1000A4008616661A57280612582806164A185C2817
:1000B40006145D280610861440208610E61964286C
:1000C4008613652886176619692806136A28061791
:1000D400E6186E2886126F2886166618732806128C
:1000E400742806164A1878280614792806108614E7
:1000F400402086104A1C8028352081282D200800A5
:100104007B15FB1F8C280130F300F201F101F00193
:08011400FA0DF20CFF300800A7
:08011C00FA1FF2130030080085
:1001240083120313FB01FA01F901F801A001730D15
:10013400F80D7408F8027508031C750FF9027608A7
:10014400031C760FFA027708031C770FFB020001E9
:10015400031C0130A002F30D0730FC00730DF80DF1
:10016400F90DFA0DFB0DA00D7408731CCB28F802D1
:100174007508031C750FF9027608031C760FFA0242
:100184007708031C770FFB020001031C0130A00257
:10019400DC28F80775080318750FF90776080318A3
:1001A400760FFA0777080318770FFB070001031887
:1001B4000130A007F30DFC0BB028720DF80DF90DFA
:1001C400FA0DFB0DA00D7408731CFA28F8027508CB
:1001D400031C750FF9027608031C760FFA027708E0
:1001E400031C770FFB020001031C0130A0020B2942
:1001F400F80775080318750FF90776080318760FC2
:10020400FA0777080318770FFB070001031801307A
:10021400A007F20D0730FC00720DF80DF90DFA0D70
:10022400FB0DA00D7408721C2929F8027508031C23
:10023400750FF9027608031C760FFA027708031C7F
:10024400770FFB020001031C0130A0023A29F807D2
:1002540075080318750FF90776080318760FFA075F
:1002640077080318770FFB07000103180130A00774
:10027400F20DFC0B0E29710DF80DF90DFA0DFB0DA5
:10028400A00D7408721C5829F8027508031C750F18
:10029400F9027608031C760FFA027708031C770F1D
:1002A400FB020001031C0130A0026929F80775084C
:1002B4000318750FF90776080318760FFA077708FD
:1002C4000318770FFB07000103180130A007F10D95
:1002D4000730FC00710DF80DF90DFA0DFB0DA00DA2
:1002E4007408711C8729F8027508031C750FF9023C
:1002F4007608031C760FFA027708031C770FFB02BB
:100304000001031C0130A0029829F807750803189E
:10031400750FF90776080318760FFA07770803189C
:10032400770FFB07000103180130A007F10DFC0B48
:100334006C29700DF80DF90DFA0DFB0DA00D740864
:10034400711CB629F8027508031C750FF9027608AA
:10035400031C760FFA027708031C770FFB020001D7
:10036400031C0130A002C729F80775080318750F8C
:10037400F90776080318760FFA0777080318770F3A
:10038400FB07000103180130A007F00D0730FC0043
:10039400700DF80DF90DFA0DFB0DA00D7408701C0D
:1003A400E529F8027508031C750FF9027608031C89
:1003B400760FFA027708031C770FFB020001031C77
:1003C4000130A002F629F80775080318750FF9071C
:1003D40076080318760FFA0777080318770FFB07D8
:1003E400000103180130A007F00DFC0BCA29701896
:1003F400092A7408F80775080318750FF9077608B1
:100404000318760FFA0777080318770FFB0708001D
:0E041400F201F101F001F801F30100300800DF
:10042200831203134A105E08E60042204A140800B1
:10043200A1017208031D2E2A7108F2007008F10052
:10044200F001A1157208031D2E2A7108F200F101B4
:10045200A1112116720803193C2A2108F302031D77
:10046200031C402A0310F21B442AF00DF10DF20D79
:10047200F30B342A402A0130FC000A22472A0230B8
:0E048200FC008220472A0430FC008E20080077
:0E0490008312031339088A003808820008001E
:10049E0083120313E301E40100306402031D592AA1
:1004AE000A3063020318642A63086207840020304E
:1004BE008000E30A0319E40A532A630862078400E2
:1004CE0080010130E302031CE40363086207E500C8
:1004DE000A30F400F501F601F7015E08F0005F083E
:1004EE00F1006008F2006108F30092207808F00035
:1004FE007908F1007A08F2007B08F30030307007BB
:10050E00F40065088400740880000A30F400F501D8
:10051E00F601F7015E08F0005F08F1006008F200D6
:10052E006108F30092207008DE007108DF00720887
:10053E00E0007308E1000030F4007306031DB12AD9
:10054E0074087206031DB12A74087106031DB12AC0
:10055E007008003A031DB42AB92A0130E302031CC5
:06056E00E4036C2A080002
:10057400FB14FB1FC42AFF30F300F200F100F0006B
:08058400FA0DF20CFF30080033
:06058C00FB15FF30080022
:100592007B14FB1FD42AF201FA1FFF30F200F10094
:0A05A200F000FA0DF20CFF30080023
:1005AC008030831203135206F00080307002031D5A
:1005BC00E12A003051020318EC2A5108003CF000EB
:1005CC005208031C013EF101F10208005108F00031
:0605DC005208F1000800C6
:1005E200831203137408003A031D0C2B7508003A9A
:1005F200031D0C2B7608003A031D0C2B7708003ADA
:10060200031D0C2BFF30F000FF30F1007F30F200B1
:10061200FF30F300080083120313770803199B2BA2
:10062200730803199E2B720876068039FA00F217B6
:10063200F617A1017208F8007108FC007008FD00AD
:100642007408FD027508031C750FFC027608031C72
:10065200760FF802F801FC01FD01031C372B031091
:10066200F20CF10CF00CF80C0130A1007708F30247
:10067200031C412B7E302107F3070318A12B462BC5
:100682007E302107F307031CA42B1830FA07FD0D57
:10069200FC0DF80DF00DF10DF20DA10D7408F00234
:1006A2007508031C750FF1027608031C760FF2021F
:1006B200760DA104211C5F2B7D146A2B7408F007B0
:1006C20075080318750FF10776080318760AF20702
:1006D2007D10FA031F307A05031D482B7B1B7D1CFE
:1006E200912B0310F00DF10DF20DA10D7408F00223
:1006F2007508031C750FF1027608031C760FF202CF
:10070200760D21040139FD070318FC0A0319F80AC2
:10071200031D912BF80CFC0CFD0CF30A0319A12B01
:10072200FA1FF8137808F2007C08F1007D08F00047
:100732000030A62B0130C622A62B02300A22A62B9D
:0E0742000430BA22A62B0830822000000800E6
:10075000831203137008F8007108F000F101F20130
:10076000F301FB01FC019630F300FA017008F1007F
:0C0770007808F000F801F20119220800DE
:10077C0083120313FB01FC01F80173080319372CD6
:10078C00F2179E30F302F31BCE2B0319CE2B272C22
:10079C00F309F30A08307302031CFC2BF300F80D69
:1007AC007008F8007108F0007208F100F2010830CE
:1007BC007302031CFC2BF300F80D7008F800710891
:1007CC00F000F10108307302031CFC2BF300F80D50
:1007DC007008F800F00108307302031CFC2BF300C6
:1007EC00F80DF8017308031D0310062C7308031988
:1007FC00062C0310F20CF10CF00CF80CF30BFF2B85
:10080C007B1B781C142C031C142CF80A0319F00AFB
:10081C000319F10A0319F20AF21B342CFA1F372CB4
:10082C00F209F109F009F809F80A0319F00A031999
:10083C00F10A0319F20A372CF201F101F001F80167
:10084C00372C7B14FB1F3A2CF201FA1F3A2CF200C6
:10085C00F100F000F800FA0DF20C3A2C0130FC001B
:10086C003C2C0030FC003C2CFF30FC00FC08031935
:10087C00402CC9227208F3007108F2007008F100D4
:06088C007808F0000800EE
:1008920083120313D801D9015108DA005208DB0090
:1008A2005308DC005408DD0080305406F00080302C
:1008B2007002031D662C00305302031D662C0030AB
:1008C2005202031D662C0030510203188E2C013097
:1008D200D8000030D900F401F501F601F701510802
:1008E200F0005208F1005308F2005408F3007408B3
:1008F200DA007508DB007608DC007708DD00700896
:10090200DA027108031C710FDB027208031C720FFA
:10091200DC027308031C730FDD025A08DE005B0859
:10092200DF005C08E0005D08E1005508E2004F22AC
:100932000B30D6000030D7005708003C031DA32C13
:100942005608003C0318BE2C56085507F200013029
:100952005602F0000030031C013E5702F1007008FD
:10096200550784000008F0007208840070088000B7
:100972000130D602031CD7039D2C55088400203079
:100982008000580859040319DC2CD601D7015608F7
:10099200550784000008203A031DD32CD60A0319F8
:1009A200D70AC82C0130D602031CD70356085507B4
:0809B20084002D3080000800D4
:1009BA008316031386100610061286120613861370
:1009CA008312861006108613061386120612352025
:1009DA0035203520861606168614402086103520C6
:1009EA008614402086103520861440208610352033
:1009FA000612861440208610352086144020861060
:100A0A00861286178614402086103520861306160D
:100A1A00861440208610061286144020861035203F
:100A2A00861440208610061686144020861035202B
:100A3A000612861440208610861706178616061692
:0C0A4A0086144020861035204A14080055
:100A56003D2D803083120313D100502DC030D100BC
:100A6600502D9430D100502DD430D100502D8030EF
:100A7600D100502D831203135108013A03192C2D6E
:100A86005108023A0319312D5108033A0319342D3E
:100A96005108043A0319372D3A2D5203F000510834
:100AA600F0077008D1007008E60042204A10D40111
:100AB60054085307840000080319692D5408530786
:100AC60084000008DE001122D40A5B2D4A140800B7
:100AD60083120313FB017308031D77080319C22D44
:100AE60072087606FA007708F3077E30031C7F2D1E
:100AF600F3020318C52D822DF302031CC82D7208BC
:100B0600F8007108FC007008FD00F817F6170310CE
:100B1600F201F101F0011830A1007D1C9C2D740832
:100B2600F00775080318750FF10776080318760F96
:100B3600F207F20CF10CF00CF80CFC0CFD0C031097
:100B4600A10B902DF21BAC2DF80DF00DF10DF20D51
:100B5600F3037B1B701CBE2DF81FBE2DF00A031974
:100B6600F10A0319F20A031DBE2DF20CF10CF00C6A
:100B7600F30A0319C52DFA1FF2130030CA2D0130EE
:100B86000A22CA2D0230BA22CA2D04308220000061
:020B9600080055
:100B980048228A110A128000840AB80A0319B90A7D
:080BA800F003031DCC2D080031
:100BB00083120313A3012630A4003530A50046306C
:100BC000A6007230A7006530A8007130A90075300A
:100BD000AA006530AB006E30AC006330AD00693008
:100BE000AE006D30AF006530B0007430B1006530DC
:100BF000B2007230B300B4014830B5007A30B600AC
:100C0000B70107309F00013090000730970083162E
:100C10000C158B170B17FF3085000C308600FF304A
:100C2000831285008601DD240C30E600422001306D
:100C3000E60042200130D1000230D2002408D30067
:100C40002B250230D1000E30D2002508D3002B25F1
:100C50004B084D02D1004C08031C013E4E02D2004D
:100C6000D6227008CD007108CE000430F200700862
:100C7000F4007108F50072080319432EF50CF40C0A
:100C8000F513FF3E3C2E7408CD007508CE007408A5
:100C9000F0007508F100A823BD30F4003730F500EE
:100CA0000630F6006B30F7006B257008F400710811
:100CB000F5007208F6007308F7000030F00000300D
:100CC000F1000030F2007F30F300F122BE23700803
:100CD000C6007108C7007208C8007308C900700810
:100CE000D1007108D2007208D3007308D4003A30E2
:100CF000D50049240230D1000130D2003A30D3006F
:100D00002B25A3100330FB008A30FC005530FD007A
:100D1000FD0B882EFC0B882EFB0B882E000000009C
:040D2000282E912EBA
:02400E006A2125
:00000001FF
